:02000000162ABE
:0E000600F201F101F001F801F30100300800F1
:100014007B15FB1F14280130F300F201F101F001FC
:08002400FA0DF20CFF30080098
:08002C00FA1FF2130030080076
:10003400FB14FB1F2428FF30F300F200F100F00052
:08004400FA0DF20CFF30080078
:10004C00A0017208031D3B287108F2007008F10032
:10005C00F001A0157208031D3B287108F200F10194
:10006C00A01120167208031949282008F302031D59
:10007C00031C4D280310F21B5128F00DF10DF20D4D
:10008C00F30B41284D280130FC000320542802308A
:0E009C00FC000A2054280430FC001620080046
:0600AA00FB15FF30080009
:1000B00083120313FB017308031D77080319AF288C
:1000C00072087606FA007708F3077E30031C6C2866
:1000D000F3020318B2286F28F302031CB528720834
:1000E000F8007108FC007008FD00F817F6170310FF
:1000F000F201F101F0011830A0007D1C892874087C
:10010000F00775080318750FF10776080318760FC6
:10011000F207F20CF10CF00CF80CFC0CFD0C0310C7
:10012000A00B7D28F21B9928F80DF00DF10DF20DB2
:10013000F3037B1B701CAB28F81FAB28F00A0319D4
:10014000F10A0319F20A031DAB28F20CF10CF00CB2
:10015000F30A0319B228FA1FF2130030B72801304E
:100160000320B72802301A20B72804300A200000E4
:02017000080085
:1001720083120313FA017308031D7A147708031D0F
:10018200FA147A0803190529033A0319D0287A18B0
:10019200CD28F61F03290129F21F0129032972081C
:1001A2008039FA00F21376088039F6137A060319B9
:1001B200DE287A0803190129032977087302031933
:1001C200E528031CF928FD28760872020319EC2899
:1001D200031CF928FD28750871020319F328031C72
:1001E200F928FD2874087002031905290318FD284F
:1001F200FA08031903290129FA0803190129032915
:100202000314080003100800031403150800080073
:10021200831203137008F8007108F000F101F20173
:10022200F301FB01FC019630F300FA01F01F1F29D4
:10023200F809F009F80A0319F00AFA177008F10030
:0C0242007808F000F801F2012620080006
:10024E0083120313F101F2013C087202031D3129DE
:10025E003B08710203184529F301F40100307402C2
:10026E00031D3B299B30730203184129F30A03191E
:0E027E00F40A3529F10A0319F20A2B290800A7
:10028C00831203137408003A031D61297508003AA0
:10029C00031D61297608003A031D61297708003A8D
:1002AC00031D6129FF30F000FF30F1007F30F200B8
:1002BC00FF30F300FC298312031377080319F0298C
:1002CC0073080319F329720876068039FA00F217BD
:1002DC00F617A0017208F8007108FC007008FD0008
:1002EC007408FD027508031C750FFC027608031CCC
:1002FC00760FF802F801FC01FD01031C8C29031098
:10030C00F20CF10CF00CF80C0130A0007708F302A1
:10031C00031C96297E302007F3070318F6299B2926
:10032C007E302007F307031CF9291830FA07FD0D5E
:10033C00FC0DF80DF00DF10DF20DA00D7408F0028E
:10034C007508031C750FF1027608031C760FF20278
:10035C00760DA004201CB4297D14BF297408F00765
:10036C0075080318750FF10776080318760AF2075B
:10037C007D10FA031F307A05031D9D297B1B7D1C04
:10038C00E6290310F00DF10DF20DA00D7408F0022A
:10039C007508031C750FF1027608031C760FF20228
:1003AC00760D20040139FD070318FC0A0319F80A1D
:1003BC00031DE629F80CFC0CFD0CF30A0319F629B5
:1003CC00FA1FF8137808F2007C08F1007D08F000A1
:1003DC000030FB2901305520FB2902300320FB297A
:0E03EC0004301A20FB2908300A200000080007
:1003FA00831203131F151F1D032A002A1E08F1006A
:0E040A00F00183161E08F0040030F104080013
:100418004130831203139F00CE3083169F000130B2
:040428008500080043
:10042C0083160313860188010C2232308312BB0021
:10043C000030BC0027210615861686108810B830AF
:10044C00BB000B30BC002721A301A4018030240683
:10045C00F0008030063A7002031D362A4030230229
:10046C000318C52A06158612FD2170088312B300E5
:10047C007108B40009219A30F4009930F500193054
:10048C00F6008130F70058200030F400C030F50041
:10049C007F30F6008830F70046217008B5007108EF
:1004AC00B6007208B7007308B8000030F4000030D2
:1004BC00F5004030F6007F30F700B9200130031C06
:1004CC000030F00070080319912A00303A06031D21
:1004DC00712A00303906031D912AB90A0319BA0A88
:1004EC00A50A0319A60A2508F0002608F100F00D4C
:1004FC00F10D70107008273E84002308800024083A
:10050C00840A800086168614E830BB000330BC00D9
:10051C002721861286109A30F4009930F500193094
:10052C00F6007F30F7003508F0003608F100370888
:10053C00F2003808F300B920013003180030F00045
:10054C0070080319AB2AB901BA0106160530FC0074
:10055C00AB30FD00FD0BB02AFC0BB02A00000000F4
:10056C0006120530FC00AB30FD00FD0BBB2AFC0B6A
:10057C00BB2A00000000A30A0319A40A2C2A861621
:10058C00B830BB000B30BC002721A301A401803084
:10059C002406F0008030063A7002031DD72A403042
:1005AC0023020318F52A8612061106160530FC00E4
:1005BC00AB30FD00FD0BE02AFC0BE02A0000000034
:1005CC0006120530FC00AB30FD00FD0BEB2AFC0BDA
:1005DC00EB2A00000000A30A0319A40ACD2A8616F0
:1005EC00B830BB000B30BC002721B101B201803008
:1005FC003206F00080307002031D062B06303102EB
:10060C0003181C2CA301A40180302A06F0008030B2
:10061C0024067002031D142B23082902031C322B01
:10062C008612061506160530FC00AB30FD00FD0BDE
:10063C001D2BFC0B1D2B0000000006120530FC00CE
:10064C00AB30FD00FD0B282BFC0B282B0000000011
:10065C00A30A0319A40A0A2B88148616B830BB0007
:10066C000B30BC0027218810A301A40129082B0200
:10067C00F1002A08031C013E2C02F20080307206A5
:10068C00F000803024067002031D4E2B23087102EB
:10069C00031C6C2B8612061506160530FC00AB30BD
:1006AC00FD00FD0B572BFC0B572B00000000061216
:1006BC000530FC00AB30FD00FD0B622BFC0B622BFC
:1006CC0000000000A30A0319A40A3C2B8814861608
:1006DC00B830BB000B30BC0027218810A301A4014B
:1006EC002B082D02F1002C08031C013E2E02F200F7
:1006FC0080307206F000803024067002031D882BB7
:10070C0023087102031CA62B86120615061605304B
:10071C00FC00AB30FD00FD0B912BFC0B912B000072
:10072C00000006120530FC00AB30FD00FD0B9C2BCD
:10073C00FC0B9C2B00000000A30A0319A40A762BC7
:10074C0088148616B830BB000B30BC0027218810EB
:10075C00A301A4012D082F02F1002E08031C013E59
:10076C003002F20080307206F000803024067002F5
:10077C00031DC22B23087102031CE02B86120615E5
:10078C0006160530FC00AB30FD00FD0BCB2BFC0B33
:10079C00CB2B0000000006120530FC00AB30FD0036
:1007AC00FD0BD62BFC0BD62B00000000A30A031963
:1007BC00A40AB02B88148616B830BB000B30BC00D2
:1007CC0027218810A301A40180303006F00080306E
:1007DC0024067002031DF42B23082F02031C122C79
:1007EC008612061106160530FC00AB30FD00FD0B21
:1007FC00FD2BFC0BFD2B0000000006120530FC004D
:10080C00AB30FD00FD0B082CFC0B082C000000008D
:10081C00A30A0319A40AEA2B8616B830BB000B30C6
:0E082C00BC002721B10A0319B20AFD2A1C2CB8
:02400E004A2F37
:00000001FF
